:100000000C945D000C9485000C9485000C94850084
:100010000C9485000C9485000C9485000C9485004C
:100020000C9485000C9485000C9485000C941D03A1
:100030000C9485000C9485000C9485000C9485002C
:100040000C947B020C9485000C94EB020C94C5027A
:100050000C9485000C9485000C9485000C9485000C
:100060000C9485000C94850000000008000201003B
:100070000003040700000000000000000000000072
:10008000250028002B0000000000240027002A0083
:10009000040404040404040402020202020203032E
:1000A0000303030301020408102040800102040836
:1000B0001020010204081020D90311241FBECFEF25
:1000C000D8E0DEBFCDBF11E0A0E0B1E0E6E9FBE0A3
:1000D00002C005900D92A632B107D9F721E0A6E241
:1000E000B1E001C01D92A53FB207E1F710E0CDE5F8
:1000F000D0E004C02197FE010E94C305CC35D10792
:10010000C9F70E9436040C94C9050C94000090E0D5
:10011000FC01EC55FF4F249180579F4FFC018491C7
:10012000882399F090E0880F991FFC01EA57FF4F50
:10013000A591B491FC01E458FF4F859194918FB73C
:10014000F894EC91E22BEC938FBF0895CF92DF925D
:10015000EF92FF92DC01A03282E0B807D4F5A53B14
:10016000B10514F0A4EBB0E04091F30128E830E0D1
:10017000241B310947FD3395220F331F220F331FF4
:100180006901330FEE08FF084091F40128E532E0E1
:10019000241B310947FD3395220F331F220F331FD4
:1001A000032E000C440B550B2C193D094E095F0919
:1001B000B7FF02C0B0E0A0E00E947E0524EB30E073
:1001C00040E050E00E945405C20ED31EE41EF51E0E
:1001D000D601E091F201EC3080F52091F30188E83E
:1001E00090E0821B910927FD9395880F991F880F36
:1001F000991FA817B90784F02091F40188E592E0CF
:10020000821B910927FD9395880F991F880F991FCD
:10021000A817B9070CF4CD010297880F991F4FB7A3
:10022000F8942E2F30E0F901EE0FFF1FE20FF31FBD
:10023000E353FE4F928381834FBFFF90EF90DF9097
:10024000CF900895AF92BF92CF92DF92EF92FF923C
:100250000F931F93CF93DF936C017B018B01040FEE
:10026000151FEB015E01AE18BF08C017D10759F08A
:100270006991D601ED91FC910190F081E02DC601CC
:100280000995892B79F7C501DF91CF911F910F91C6
:10029000FF90EF90DF90CF90BF90AF900895FC015A
:1002A000538D448D252F30E0842F90E0821B930BDB
:1002B000541710F0CF96089501970895FC01918D81
:1002C000828D981761F0A28DAE0FBF2FB11D5D9684
:1002D0008C91928D9F5F9F73928F90E008958FEF26
:1002E0009FEF0895FC01918D828D981731F0828DDA
:1002F000E80FF11D858D90E008958FEF9FEF089531
:10030000FC01918D228D892F90E0805C9F4F821B94
:1003100091098F739927089580E391E00E948001ED
:1003200021E0892B09F420E0822F089580E090E0FD
:10033000892B29F00E948C0181110C9400000895F2
:10034000FC01A48DA80FB92FB11DA35ABF4F2C914A
:10035000848D90E001968F739927848FA689B78941
:100360002C93A089B1898C91837080648C93938D38
:10037000848D981306C00288F389E02D80818F7DDB
:1003800080830895EF92FF920F931F93CF93DF9393
:10039000EC0181E0888F9B8D8C8D98131AC0E889C1
:1003A000F989808185FF15C09FB7F894EE89FF8990
:1003B0006083E889F98980818370806480839FBF2E
:1003C00081E090E0DF91CF911F910F91FF90EF902E
:1003D0000895F62E0B8D10E00F5F1F4F0F7311273E
:1003E000E02E8C8D8E110CC00FB607FCFACFE88979
:1003F000F989808185FFF5CFCE010E94A001F1CF60
:10040000EB8DEC0FFD2FF11DE35AFF4FF0829FB7EC
:10041000F8940B8FEA89FB8980818062CFCFCF93DC
:10042000DF93EC01888D8823B9F0AA89BB89E8891C
:10043000F9898C9185FD03C0808186FD0DC00FB6C2
:1004400007FCF7CF8C9185FFF2CF808185FFEDCF40
:10045000CE010E94A001E9CFDF91CF91089590E0F5
:10046000FC01E859FF4F2491FC01EC55FF4F3491FA
:10047000FC01E057FF4FE491EE23C9F0222339F04D
:10048000233001F1A8F4213019F1223029F1F0E0F4
:10049000EE0FFF1FE458FF4FA591B4918FB7F8946A
:1004A000EC91611126C030953E233C938FBF089597
:1004B0002730A9F02830C9F0243049F78091800016
:1004C0008F7D03C0809180008F7780938000DFCF85
:1004D00084B58F7784BDDBCF84B58F7DFBCF8091D2
:1004E000B0008F778093B000D2CF8091B0008F7D25
:1004F000F9CF3E2BDACF1F920F920FB60F92112435
:100500002F933F938F939F93AF93BF9380912C0131
:1005100090912D01A0912E01B0912F0130912B01CE
:1005200023E0230F2D3758F50196A11DB11D20930F
:100530002B0180932C0190932D01A0932E01B09359
:100540002F018091270190912801A0912901B0915C
:100550002A010196A11DB11D8093270190932801C6
:10056000A0932901B0932A01BF91AF919F918F91E0
:100570003F912F910F900FBE0F901F90189526E876
:10058000230F0296A11DB11DD2CF1F920F920FB65D
:100590000F9211242F933F934F935F936F937F9309
:1005A0008F939F93AF93BF93EF93FF9380E391E07B
:1005B0000E94A001FF91EF91BF91AF919F918F9108
:1005C0007F916F915F914F913F912F910F900FBE4F
:1005D0000F901F9018951F920F920FB60F92112433
:1005E0002F938F939F93EF93FF93E0914001F091AE
:1005F00041018081E0914601F091470182FD1BC0DD
:100600009081809149018F5F8F7320914A018217F9
:1006100041F0E0914901F0E0E05DFE4F958F80935D
:100620004901FF91EF919F918F912F910F900FBEF4
:100630000F901F9018958081F4CF1F920F920FB6E4
:100640000F9211242F933F934F935F936F937F9358
:100650008F939F93AF93BF93CF93DF93EF93FF93CA
:1006600080912601C091F101D0E087FF24C0109253
:10067000850010928400809126018F5F809326016F
:1006800080912601082E000C990B8C179D0724F4ED
:10069000809126018C30C4F1809184009091850076
:1006A000049680349C4908F47AC08091840090912B
:1006B0008500049676C080912601082E000C990BC7
:1006C0008C179D07C4F6E09126018E2FEE0F990B33
:1006D000FC01EE0FFF1FE80FF91FE353FE4F80816F
:1006E00086FFC9CFE09126018E2FEE0F990BFC01FA
:1006F000EE0FFF1FE80FF91FE353FE4F808160E00C
:100700008F730E942F02B7CF209184003091850013
:10071000E09126018E2FEE0F990BFC01EE0FFF1FCB
:10072000E80FF91FE353FE4F81819281820F931FDF
:100730009093890080938800E09126018E2FEE0F20
:10074000990BFC01EE0FFF1FE80FF91FE353FE4F5B
:10075000808186FF11C0E09126018E2FEE0F990B4C
:10076000FC01EE0FFF1FE80FF91FE353FE4F8081DE
:1007700061E08F730E942F02FF91EF91DF91CF9183
:10078000BF91AF919F918F917F916F915F914F91A9
:100790003F912F910F900FBE0F901F90189580E4FE
:1007A0009CE990938900809388008FEF80932601C5
:1007B000E3CF109233011092320188EE93E0A0E073
:1007C000B0E08093340190933501A0933601B0934B
:1007D000370188E191E0909331018093300185ECFD
:1007E00090E090933D0180933C0184EC90E09093E5
:1007F0003F0180933E0180EC90E090934101809313
:10080000400181EC90E0909343018093420182EC9F
:1008100090E0909345018093440186EC90E09093A2
:100820004701809346011092490110924A011092AB
:100830004B0110924C018091F1018C3098F491E0C1
:10084000980F9093F1018093F20190E0FC01EE0F7C
:10085000FF1FE80FF91FE353FE4F88EB9BE09283E5
:10086000818308958FEF8093F2010895789484B581
:10087000826084BD84B5816084BD85B5826085BD9C
:1008800085B5816085BD80916E00816080936E002A
:10089000109281008091810082608093810080911C
:1008A00081008160809381008091800081608093CD
:1008B00080008091B10084608093B1008091B0008D
:1008C00081608093B00080917A00846080937A0088
:1008D00080917A00826080937A0080917A008160B2
:1008E00080937A0080917A00806880937A001092D9
:1008F000C100E0914001F091410182E08083E091EC
:100900003C01F0913D011082E0913E01F0913F01E8
:100910008FEC808310924801E0914401F0914501F1
:1009200086E08083E0914201F09143018081806103
:100930008083E0914201F09143018081886080834F
:10094000E0914201F0914301808180688083E091D1
:100950004201F091430180818F7D80838091F2017B
:100960008C3008F050C08CE00E9487008091F2012A
:10097000282F30E0F901EE0FFF1FE20FF31FE353C2
:10098000FE4F9081907C9C6090831092F3011092B6
:10099000F4012CE0622F0E94B705829FB001112460
:1009A00030E020E0AB01420F531FFA01EE0FFF1FB2
:1009B000E40FF51FE353FE4F908196FD16C02F5FA5
:1009C0003F4F2C30310571F781110FC0109280001C
:1009D00082E0809381001092850010928400B19A89
:1009E00080916F00826080936F00E091F2018E2F02
:1009F00090E0FC01EE0FFF1FE80FF91FE353FE4FDD
:100A000080818064808390E080E00E94A60004E101
:100A100011E0C0E0D1E0888122960E9487000C1787
:100A20001D07C9F792E1B92E20E0C22E20E0D22E98
:100A300080E391E00E948001181619065CF580E3BE
:100A400091E00E945E0197FF02C090E080E0EC011F
:100A50000B9714F0CAE0D0E0BC9EC001BD9E900D83
:100A600011240E94A60080E0E82E81E0F82E10E01C
:100A700000E0F7018081F2E0EF0EF11C61E00C175D
:100A80001D070CF060E00E942F020F5F1F4F0A301D
:100A9000110579F7C114D10459F20E948C01882301
:100AA00039F20E940000C4CF052E97FB1EF400947B
:100AB0000E946B0557FD07D00E94860507FC03D0F6
:100AC0004EF40C946B0550954095309521953F4F11
:100AD0004F4F5F4F089590958095709561957F4F2A
:100AE0008F4F9F4F08950E94A805A59F900DB49F1A
:100AF000900DA49F800D911D11240895B7FF0C94B3
:100B000073050E947305821B930B0895A1E21A2EB0
:100B1000AA1BBB1BFD010DC0AA1FBB1FEE1FFF1FA1
:100B2000A217B307E407F50720F0A21BB30BE40BF1
:100B3000F50B661F771F881F991F1A9469F7609538
:100B40007095809590959B01AC01BD01CF010895F2
:100B5000A29FB001B39FC001A39F700D811D1124FE
:100B6000911DB29F700D811D1124911D0895991B37
:100B700079E004C0991F961708F0961B881F7A9594
:100B8000C9F780950895EE0FFF1F0590F491E02DB1
:060B90000994F894FFCF68
:100B96000200030004000500060007000800090023
:100BA6000A000B0000000000C20122014F010F02E3
:060BB60080015E017201E6
:00000001FF
